{
    "_format": "hh-sol-artifact-1",
    "contractName": "DigitalPati",
    "sourceName": "contracts/DigitalPati.sol",
    "abi": [
        {
            "inputs": [],
            "stateMutability": "nonpayable",
            "type": "constructor"
        },
        {
            "inputs": [
                {
                    "internalType": "address",
                    "name": "sender",
                    "type": "address"
                },
                {
                    "internalType": "uint256",
                    "name": "tokenId",
                    "type": "uint256"
                },
                {
                    "internalType": "address",
                    "name": "owner",
                    "type": "address"
                }
            ],
            "name": "ERC721IncorrectOwner",
            "type": "error"
        },
        {
            "inputs": [
                {
                    "internalType": "address",
                    "name": "operator",
                    "type": "address"
                },
                {
                    "internalType": "uint256",
                    "name": "tokenId",
                    "type": "uint256"
                }
            ],
            "name": "ERC721InsufficientApproval",
            "type": "error"
        },
        {
            "inputs": [
                {
                    "internalType": "address",
                    "name": "approver",
                    "type": "address"
                }
            ],
            "name": "ERC721InvalidApprover",
            "type": "error"
        },
        {
            "inputs": [
                {
                    "internalType": "address",
                    "name": "operator",
                    "type": "address"
                }
            ],
            "name": "ERC721InvalidOperator",
            "type": "error"
        },
        {
            "inputs": [
                {
                    "internalType": "address",
                    "name": "owner",
                    "type": "address"
                }
            ],
            "name": "ERC721InvalidOwner",
            "type": "error"
        },
        {
            "inputs": [
                {
                    "internalType": "address",
                    "name": "receiver",
                    "type": "address"
                }
            ],
            "name": "ERC721InvalidReceiver",
            "type": "error"
        },
        {
            "inputs": [
                {
                    "internalType": "address",
                    "name": "sender",
                    "type": "address"
                }
            ],
            "name": "ERC721InvalidSender",
            "type": "error"
        },
        {
            "inputs": [
                {
                    "internalType": "uint256",
                    "name": "tokenId",
                    "type": "uint256"
                }
            ],
            "name": "ERC721NonexistentToken",
            "type": "error"
        },
        {
            "inputs": [
                {
                    "internalType": "address",
                    "name": "owner",
                    "type": "address"
                }
            ],
            "name": "OwnableInvalidOwner",
            "type": "error"
        },
        {
            "inputs": [
                {
                    "internalType": "address",
                    "name": "account",
                    "type": "address"
                }
            ],
            "name": "OwnableUnauthorizedAccount",
            "type": "error"
        },
        {
            "anonymous": false,
            "inputs": [
                {
                    "indexed": true,
                    "internalType": "address",
                    "name": "owner",
                    "type": "address"
                },
                {
                    "indexed": true,
                    "internalType": "address",
                    "name": "approved",
                    "type": "address"
                },
                {
                    "indexed": true,
                    "internalType": "uint256",
                    "name": "tokenId",
                    "type": "uint256"
                }
            ],
            "name": "Approval",
            "type": "event"
        },
        {
            "anonymous": false,
            "inputs": [
                {
                    "indexed": true,
                    "internalType": "address",
                    "name": "owner",
                    "type": "address"
                },
                {
                    "indexed": true,
                    "internalType": "address",
                    "name": "operator",
                    "type": "address"
                },
                {
                    "indexed": false,
                    "internalType": "bool",
                    "name": "approved",
                    "type": "bool"
                }
            ],
            "name": "ApprovalForAll",
            "type": "event"
        },
        {
            "anonymous": false,
            "inputs": [
                {
                    "indexed": false,
                    "internalType": "uint256",
                    "name": "_fromTokenId",
                    "type": "uint256"
                },
                {
                    "indexed": false,
                    "internalType": "uint256",
                    "name": "_toTokenId",
                    "type": "uint256"
                }
            ],
            "name": "BatchMetadataUpdate",
            "type": "event"
        },
        {
            "anonymous": false,
            "inputs": [
                {
                    "indexed": false,
                    "internalType": "uint256",
                    "name": "_tokenId",
                    "type": "uint256"
                }
            ],
            "name": "MetadataUpdate",
            "type": "event"
        },
        {
            "anonymous": false,
            "inputs": [
                {
                    "indexed": true,
                    "internalType": "address",
                    "name": "previousOwner",
                    "type": "address"
                },
                {
                    "indexed": true,
                    "internalType": "address",
                    "name": "newOwner",
                    "type": "address"
                }
            ],
            "name": "OwnershipTransferred",
            "type": "event"
        },
        {
            "anonymous": false,
            "inputs": [
                {
                    "indexed": true,
                    "internalType": "uint256",
                    "name": "tokenId",
                    "type": "uint256"
                },
                {
                    "indexed": false,
                    "internalType": "address",
                    "name": "owner",
                    "type": "address"
                }
            ],
            "name": "PetMinted",
            "type": "event"
        },
        {
            "anonymous": false,
            "inputs": [
                {
                    "indexed": true,
                    "internalType": "uint256",
                    "name": "tokenId",
                    "type": "uint256"
                },
                {
                    "indexed": false,
                    "internalType": "bool",
                    "name": "isLost",
                    "type": "bool"
                }
            ],
            "name": "PetStatusChanged",
            "type": "event"
        },
        {
            "anonymous": false,
            "inputs": [
                {
                    "indexed": true,
                    "internalType": "address",
                    "name": "from",
                    "type": "address"
                },
                {
                    "indexed": true,
                    "internalType": "address",
                    "name": "to",
                    "type": "address"
                },
                {
                    "indexed": true,
                    "internalType": "uint256",
                    "name": "tokenId",
                    "type": "uint256"
                }
            ],
            "name": "Transfer",
            "type": "event"
        },
        {
            "inputs": [
                {
                    "internalType": "address",
                    "name": "to",
                    "type": "address"
                },
                {
                    "internalType": "uint256",
                    "name": "tokenId",
                    "type": "uint256"
                }
            ],
            "name": "approve",
            "outputs": [],
            "stateMutability": "nonpayable",
            "type": "function"
        },
        {
            "inputs": [
                {
                    "internalType": "address",
                    "name": "owner",
                    "type": "address"
                }
            ],
            "name": "balanceOf",
            "outputs": [
                {
                    "internalType": "uint256",
                    "name": "",
                    "type": "uint256"
                }
            ],
            "stateMutability": "view",
            "type": "function"
        },
        {
            "inputs": [
                {
                    "internalType": "uint256",
                    "name": "tokenId",
                    "type": "uint256"
                }
            ],
            "name": "getApproved",
            "outputs": [
                {
                    "internalType": "address",
                    "name": "",
                    "type": "address"
                }
            ],
            "stateMutability": "view",
            "type": "function"
        },
        {
            "inputs": [
                {
                    "internalType": "uint256",
                    "name": "tokenId",
                    "type": "uint256"
                }
            ],
            "name": "getPetStatus",
            "outputs": [
                {
                    "internalType": "bool",
                    "name": "isLost",
                    "type": "bool"
                },
                {
                    "internalType": "string",
                    "name": "contactInfo",
                    "type": "string"
                }
            ],
            "stateMutability": "view",
            "type": "function"
        },
        {
            "inputs": [
                {
                    "internalType": "address",
                    "name": "owner",
                    "type": "address"
                },
                {
                    "internalType": "address",
                    "name": "operator",
                    "type": "address"
                }
            ],
            "name": "isApprovedForAll",
            "outputs": [
                {
                    "internalType": "bool",
                    "name": "",
                    "type": "bool"
                }
            ],
            "stateMutability": "view",
            "type": "function"
        },
        {
            "inputs": [
                {
                    "internalType": "string",
                    "name": "tokenURI",
                    "type": "string"
                },
                {
                    "internalType": "string",
                    "name": "contactInfo",
                    "type": "string"
                }
            ],
            "name": "mintPet",
            "outputs": [
                {
                    "internalType": "uint256",
                    "name": "",
                    "type": "uint256"
                }
            ],
            "stateMutability": "nonpayable",
            "type": "function"
        },
        {
            "inputs": [],
            "name": "name",
            "outputs": [
                {
                    "internalType": "string",
                    "name": "",
                    "type": "string"
                }
            ],
            "stateMutability": "view",
            "type": "function"
        },
        {
            "inputs": [],
            "name": "owner",
            "outputs": [
                {
                    "internalType": "address",
                    "name": "",
                    "type": "address"
                }
            ],
            "stateMutability": "view",
            "type": "function"
        },
        {
            "inputs": [
                {
                    "internalType": "uint256",
                    "name": "tokenId",
                    "type": "uint256"
                }
            ],
            "name": "ownerOf",
            "outputs": [
                {
                    "internalType": "address",
                    "name": "",
                    "type": "address"
                }
            ],
            "stateMutability": "view",
            "type": "function"
        },
        {
            "inputs": [
                {
                    "internalType": "uint256",
                    "name": "",
                    "type": "uint256"
                }
            ],
            "name": "pets",
            "outputs": [
                {
                    "internalType": "bool",
                    "name": "isLost",
                    "type": "bool"
                },
                {
                    "internalType": "string",
                    "name": "contactInfo",
                    "type": "string"
                }
            ],
            "stateMutability": "view",
            "type": "function"
        },
        {
            "inputs": [],
            "name": "renounceOwnership",
            "outputs": [],
            "stateMutability": "nonpayable",
            "type": "function"
        },
        {
            "inputs": [
                {
                    "internalType": "address",
                    "name": "from",
                    "type": "address"
                },
                {
                    "internalType": "address",
                    "name": "to",
                    "type": "address"
                },
                {
                    "internalType": "uint256",
                    "name": "tokenId",
                    "type": "uint256"
                }
            ],
            "name": "safeTransferFrom",
            "outputs": [],
            "stateMutability": "nonpayable",
            "type": "function"
        },
        {
            "inputs": [
                {
                    "internalType": "address",
                    "name": "from",
                    "type": "address"
                },
                {
                    "internalType": "address",
                    "name": "to",
                    "type": "address"
                },
                {
                    "internalType": "uint256",
                    "name": "tokenId",
                    "type": "uint256"
                },
                {
                    "internalType": "bytes",
                    "name": "data",
                    "type": "bytes"
                }
            ],
            "name": "safeTransferFrom",
            "outputs": [],
            "stateMutability": "nonpayable",
            "type": "function"
        },
        {
            "inputs": [
                {
                    "internalType": "address",
                    "name": "operator",
                    "type": "address"
                },
                {
                    "internalType": "bool",
                    "name": "approved",
                    "type": "bool"
                }
            ],
            "name": "setApprovalForAll",
            "outputs": [],
            "stateMutability": "nonpayable",
            "type": "function"
        },
        {
            "inputs": [
                {
                    "internalType": "bytes4",
                    "name": "interfaceId",
                    "type": "bytes4"
                }
            ],
            "name": "supportsInterface",
            "outputs": [
                {
                    "internalType": "bool",
                    "name": "",
                    "type": "bool"
                }
            ],
            "stateMutability": "view",
            "type": "function"
        },
        {
            "inputs": [],
            "name": "symbol",
            "outputs": [
                {
                    "internalType": "string",
                    "name": "",
                    "type": "string"
                }
            ],
            "stateMutability": "view",
            "type": "function"
        },
        {
            "inputs": [
                {
                    "internalType": "uint256",
                    "name": "tokenId",
                    "type": "uint256"
                }
            ],
            "name": "toggleLostStatus",
            "outputs": [],
            "stateMutability": "nonpayable",
            "type": "function"
        },
        {
            "inputs": [
                {
                    "internalType": "uint256",
                    "name": "tokenId",
                    "type": "uint256"
                }
            ],
            "name": "tokenURI",
            "outputs": [
                {
                    "internalType": "string",
                    "name": "",
                    "type": "string"
                }
            ],
            "stateMutability": "view",
            "type": "function"
        },
        {
            "inputs": [
                {
                    "internalType": "address",
                    "name": "from",
                    "type": "address"
                },
                {
                    "internalType": "address",
                    "name": "to",
                    "type": "address"
                },
                {
                    "internalType": "uint256",
                    "name": "tokenId",
                    "type": "uint256"
                }
            ],
            "name": "transferFrom",
            "outputs": [],
            "stateMutability": "nonpayable",
            "type": "function"
        },
        {
            "inputs": [
                {
                    "internalType": "address",
                    "name": "newOwner",
                    "type": "address"
                }
            ],
            "name": "transferOwnership",
            "outputs": [],
            "stateMutability": "nonpayable",
            "type": "function"
        },
        {
            "inputs": [
                {
                    "internalType": "uint256",
                    "name": "tokenId",
                    "type": "uint256"
                },
                {
                    "internalType": "string",
                    "name": "newContactInfo",
                    "type": "string"
                }
            ],
            "name": "updateContactInfo",
            "outputs": [],
            "stateMutability": "nonpayable",
            "type": "function"
        }
    ],
    "bytecode": "0x60806040523480156200001157600080fd5b50336040518060400160405280600b81526020017f44696a6974616c506174690000000000000000000000000000000000000000008152506040518060400160405280600481526020017f5041544900000000000000000000000000000000000000000000000000000000815250816000908162000090919062000472565b508060019081620000a2919062000472565b505050600073ffffffffffffffffffffffffffffffffffffffff168173ffffffffffffffffffffffffffffffffffffffff16036200011a5760006040517f1e4fbdf70000000000000000000000000000000000000000000000000000000081526004016200011191906200059e565b60405180910390fd5b6200012b816200013260201b60201c565b50620005bb565b6000600760009054906101000a900473ffffffffffffffffffffffffffffffffffffffff16905081600760006101000a81548173ffffffffffffffffffffffffffffffffffffffff021916908373ffffffffffffffffffffffffffffffffffffffff1602179055508173ffffffffffffffffffffffffffffffffffffffff168173ffffffffffffffffffffffffffffffffffffffff167f8be0079c531659141344cd1fd0a4f28419497f9722a3daafe3b4186f6b6457e060405160405180910390a35050565b600081519050919050565b7f4e487b7100000000000000000000000000000000000000000000000000000000600052604160045260246000fd5b7f4e487b7100000000000000000000000000000000000000000000000000000000600052602260045260246000fd5b600060028204905060018216806200027a57607f821691505b60208210810362000290576200028f62000232565b5b50919050565b60008190508160005260206000209050919050565b60006020601f8301049050919050565b600082821b905092915050565b600060088302620002fa7fffffffffffffffffffffffffffffffffffffffffffffffffffffffffffffffff82620002bb565b620003068683620002bb565b95508019841693508086168417925050509392505050565b6000819050919050565b6000819050919050565b6000620003536200034d62000347846200031e565b62000328565b6200031e565b9050919050565b6000819050919050565b6200036f8362000332565b620003876200037e826200035a565b848454620002c8565b825550505050565b600090565b6200039e6200038f565b620003ab81848462000364565b505050565b5b81811015620003d357620003c760008262000394565b600181019050620003b1565b5050565b601f8211156200042257620003ec8162000296565b620003f784620002ab565b8101602085101562000407578190505b6200041f6200041685620002ab565b830182620003b0565b50505b505050565b600082821c905092915050565b6000620004476000198460080262000427565b1980831691505092915050565b600062000462838362000434565b9150826002028217905092915050565b6200047d82620001f8565b67ffffffffffffffff81111562000499576200049862000203565b5b620004a5825462000261565b620004b2828285620003d7565b600060209050601f831160018114620004ea5760008415620004d5578287015190505b620004e1858262000454565b86555062000551565b601f198416620004fa8662000296565b60005b828110156200052457848901518255600182019150602085019450602081019050620004fd565b8683101562000544578489015162000540601f89168262000434565b8355505b6001600288020188555050505b505050505050565b600073ffffffffffffffffffffffffffffffffffffffff82169050919050565b6000620005868262000559565b9050919050565b620005988162000579565b82525050565b6000602082019050620005b560008301846200058d565b92915050565b612c1880620005cb6000396000f3fe608060405234801561001057600080fd5b50600436106101375760003560e01c8063715018a6116100b8578063b88d4fde1161007c578063b88d4fde14610339578063b890773214610355578063c87b56dd14610385578063cfb869bf146103b5578063e985e9c5146103e6578063f2fde38b1461041657610137565b8063715018a6146102bb5780638da5cb5b146102c55780639293d554146102e357806395d89b41146102ff578063a22cb4651461031d57610137565b806323b872dd116100ff57806323b872dd1461020757806342842e0e146102235780636352211e1461023f5780636a37870c1461026f57806370a082311461028b57610137565b806301ffc9a71461013c57806306fdde031461016c57806308062e1f1461018a578063081812fc146101bb578063095ea7b3146101eb575b600080fd5b61015660048036038101906101519190611f5c565b610432565b6040516101639190611fa4565b60405180910390f35b610174610493565b604051610181919061204f565b60405180910390f35b6101a4600480360381019061019f91906120a7565b610525565b6040516101b29291906120d4565b60405180910390f35b6101d560048036038101906101d091906120a7565b610616565b6040516101e29190612145565b60405180910390f35b6102056004803603810190610200919061218c565b610632565b005b610221600480360381019061021c91906121cc565b610648565b005b61023d600480360381019061023891906121cc565b61074a565b005b610259600480360381019061025491906120a7565b61076a565b6040516102669190612145565b60405180910390f35b610289600480360381019061028491906120a7565b61077c565b005b6102a560048036038101906102a0919061221f565b6108a2565b6040516102b2919061225b565b60405180910390f35b6102c361095c565b005b6102cd610970565b6040516102da9190612145565b60405180910390f35b6102fd60048036038101906102f891906123ab565b61099a565b005b610307610a38565b604051610314919061204f565b60405180910390f35b61033760048036038101906103329190612433565b610aca565b005b610353600480360381019061034e9190612514565b610ae0565b005b61036f600480360381019061036a9190612597565b610b05565b60405161037c919061225b565b60405180910390f35b61039f600480360381019061039a91906120a7565b610bdb565b6040516103ac919061204f565b60405180910390f35b6103cf60048036038101906103ca91906120a7565b610cee565b6040516103dd9291906120d4565b60405180910390f35b61040060048036038101906103fb919061260f565b610da7565b60405161040d9190611fa4565b60405180910390f35b610430600480360381019061042b919061221f565b610e3b565b005b6000634906490660e01b7bffffffffffffffffffffffffffffffffffffffffffffffffffffffff1916827bffffffffffffffffffffffffffffffffffffffffffffffffffffffff1916148061048c575061048b82610ec1565b5b9050919050565b6060600080546104a29061267e565b80601f01602080910402602001604051908101604052809291908181526020018280546104ce9061267e565b801561051b5780601f106104f05761010080835404028352916020019161051b565b820191906000526020600020905b8154815290600101906020018083116104fe57829003601f168201915b5050505050905090565b6000606061053283610fa3565b506000600960008581526020019081526020016000206040518060400160405290816000820160009054906101000a900460ff1615151515815260200160018201805461057e9061267e565b80601f01602080910402602001604051908101604052809291908181526020018280546105aa9061267e565b80156105f75780601f106105cc576101008083540402835291602001916105f7565b820191906000526020600020905b8154815290600101906020018083116105da57829003601f168201915b5050505050815250509050806000015181602001519250925050915091565b600061062182610fa3565b5061062b8261102b565b9050919050565b610644828261063f611068565b611070565b5050565b600073ffffffffffffffffffffffffffffffffffffffff168273ffffffffffffffffffffffffffffffffffffffff16036106ba5760006040517f64a0ae920000000000000000000000000000000000000000000000000000000081526004016106b19190612145565b60405180910390fd5b60006106ce83836106c9611068565b611082565b90508373ffffffffffffffffffffffffffffffffffffffff168173ffffffffffffffffffffffffffffffffffffffff1614610744578382826040517f64283d7b00000000000000000000000000000000000000000000000000000000815260040161073b939291906126af565b60405180910390fd5b50505050565b61076583838360405180602001604052806000815250610ae0565b505050565b600061077582610fa3565b9050919050565b3373ffffffffffffffffffffffffffffffffffffffff1661079c8261076a565b73ffffffffffffffffffffffffffffffffffffffff16146107f2576040517f08c379a00000000000000000000000000000000000000000000000000000000081526004016107e990612732565b60405180910390fd5b6009600082815260200190815260200160002060000160009054906101000a900460ff16156009600083815260200190815260200160002060000160006101000a81548160ff021916908315150217905550807f46170ba694f5e2ec47d544b17cd3cb477f9002aaab0620d8e0e62239326c050b6009600084815260200190815260200160002060000160009054906101000a900460ff166040516108979190611fa4565b60405180910390a250565b60008073ffffffffffffffffffffffffffffffffffffffff168273ffffffffffffffffffffffffffffffffffffffff16036109155760006040517f89c62b6400000000000000000000000000000000000000000000000000000000815260040161090c9190612145565b60405180910390fd5b600360008373ffffffffffffffffffffffffffffffffffffffff1673ffffffffffffffffffffffffffffffffffffffff168152602001908152602001600020549050919050565b61096461129c565b61096e6000611323565b565b6000600760009054906101000a900473ffffffffffffffffffffffffffffffffffffffff16905090565b3373ffffffffffffffffffffffffffffffffffffffff166109ba8361076a565b73ffffffffffffffffffffffffffffffffffffffff1614610a10576040517f08c379a0000000000000000000000000000000000000000000000000000000008152600401610a0790612732565b60405180910390fd5b80600960008481526020019081526020016000206001019081610a3391906128fe565b505050565b606060018054610a479061267e565b80601f0160208091040260200160405190810160405280929190818152602001828054610a739061267e565b8015610ac05780601f10610a9557610100808354040283529160200191610ac0565b820191906000526020600020905b815481529060010190602001808311610aa357829003601f168201915b5050505050905090565b610adc610ad5611068565b83836113e9565b5050565b610aeb848484610648565b610aff610af6611068565b85858585611558565b50505050565b60008060086000815480929190610b1b906129ff565b919050559050610b2b3382611709565b610b358185611802565b6040518060400160405280600015158152602001848152506009600083815260200190815260200160002060008201518160000160006101000a81548160ff0219169083151502179055506020820151816001019081610b9591906128fe565b50905050807f73ba744eb658f3bf1d93220b8b6d58e78060c370f57ce2cd3e54a7757a2332d433604051610bc99190612145565b60405180910390a28091505092915050565b6060610be682610fa3565b506000600660008481526020019081526020016000208054610c079061267e565b80601f0160208091040260200160405190810160405280929190818152602001828054610c339061267e565b8015610c805780601f10610c5557610100808354040283529160200191610c80565b820191906000526020600020905b815481529060010190602001808311610c6357829003601f168201915b505050505090506000610c9161185e565b90506000815103610ca6578192505050610ce9565b600082511115610cdb578082604051602001610cc3929190612a83565b60405160208183030381529060405292505050610ce9565b610ce484611875565b925050505b919050565b60096020528060005260406000206000915090508060000160009054906101000a900460ff1690806001018054610d249061267e565b80601f0160208091040260200160405190810160405280929190818152602001828054610d509061267e565b8015610d9d5780601f10610d7257610100808354040283529160200191610d9d565b820191906000526020600020905b815481529060010190602001808311610d8057829003601f168201915b5050505050905082565b6000600560008473ffffffffffffffffffffffffffffffffffffffff1673ffffffffffffffffffffffffffffffffffffffff16815260200190815260200160002060008373ffffffffffffffffffffffffffffffffffffffff1673ffffffffffffffffffffffffffffffffffffffff16815260200190815260200160002060009054906101000a900460ff16905092915050565b610e4361129c565b600073ffffffffffffffffffffffffffffffffffffffff168173ffffffffffffffffffffffffffffffffffffffff1603610eb55760006040517f1e4fbdf7000000000000000000000000000000000000000000000000000000008152600401610eac9190612145565b60405180910390fd5b610ebe81611323565b50565b60007f80ac58cd000000000000000000000000000000000000000000000000000000007bffffffffffffffffffffffffffffffffffffffffffffffffffffffff1916827bffffffffffffffffffffffffffffffffffffffffffffffffffffffff19161480610f8c57507f5b5e139f000000000000000000000000000000000000000000000000000000007bffffffffffffffffffffffffffffffffffffffffffffffffffffffff1916827bffffffffffffffffffffffffffffffffffffffffffffffffffffffff1916145b80610f9c5750610f9b826118de565b5b9050919050565b600080610faf83611948565b9050600073ffffffffffffffffffffffffffffffffffffffff168173ffffffffffffffffffffffffffffffffffffffff160361102257826040517f7e273289000000000000000000000000000000000000000000000000000000008152600401611019919061225b565b60405180910390fd5b80915050919050565b60006004600083815260200190815260200160002060009054906101000a900473ffffffffffffffffffffffffffffffffffffffff169050919050565b600033905090565b61107d8383836001611985565b505050565b60008061108e84611948565b9050600073ffffffffffffffffffffffffffffffffffffffff168373ffffffffffffffffffffffffffffffffffffffff16146110d0576110cf818486611b4a565b5b600073ffffffffffffffffffffffffffffffffffffffff168173ffffffffffffffffffffffffffffffffffffffff161461116157611112600085600080611985565b6001600360008373ffffffffffffffffffffffffffffffffffffffff1673ffffffffffffffffffffffffffffffffffffffff168152602001908152602001600020600082825403925050819055505b600073ffffffffffffffffffffffffffffffffffffffff168573ffffffffffffffffffffffffffffffffffffffff16146111e4576001600360008773ffffffffffffffffffffffffffffffffffffffff1673ffffffffffffffffffffffffffffffffffffffff168152602001908152602001600020600082825401925050819055505b846002600086815260200190815260200160002060006101000a81548173ffffffffffffffffffffffffffffffffffffffff021916908373ffffffffffffffffffffffffffffffffffffffff160217905550838573ffffffffffffffffffffffffffffffffffffffff168273ffffffffffffffffffffffffffffffffffffffff167fddf252ad1be2c89b69c2b068fc378daa952ba7f163c4a11628f55a4df523b3ef60405160405180910390a4809150509392505050565b6112a4611068565b73ffffffffffffffffffffffffffffffffffffffff166112c2610970565b73ffffffffffffffffffffffffffffffffffffffff1614611321576112e5611068565b6040517f118cdaa70000000000000000000000000000000000000000000000000000000081526004016113189190612145565b60405180910390fd5b565b6000600760009054906101000a900473ffffffffffffffffffffffffffffffffffffffff16905081600760006101000a81548173ffffffffffffffffffffffffffffffffffffffff021916908373ffffffffffffffffffffffffffffffffffffffff1602179055508173ffffffffffffffffffffffffffffffffffffffff168173ffffffffffffffffffffffffffffffffffffffff167f8be0079c531659141344cd1fd0a4f28419497f9722a3daafe3b4186f6b6457e060405160405180910390a35050565b600073ffffffffffffffffffffffffffffffffffffffff168273ffffffffffffffffffffffffffffffffffffffff160361145a57816040517f5b08ba180000000000000000000000000000000000000000000000000000000081526004016114519190612145565b60405180910390fd5b80600560008573ffffffffffffffffffffffffffffffffffffffff1673ffffffffffffffffffffffffffffffffffffffff16815260200190815260200160002060008473ffffffffffffffffffffffffffffffffffffffff1673ffffffffffffffffffffffffffffffffffffffff16815260200190815260200160002060006101000a81548160ff0219169083151502179055508173ffffffffffffffffffffffffffffffffffffffff168373ffffffffffffffffffffffffffffffffffffffff167f17307eab39ab6107e8899845ad3d59bd9653f200f220920489ca2b5937696c318360405161154b9190611fa4565b60405180910390a3505050565b60008373ffffffffffffffffffffffffffffffffffffffff163b1115611702578273ffffffffffffffffffffffffffffffffffffffff1663150b7a02868685856040518563ffffffff1660e01b81526004016115b79493929190612afc565b6020604051808303816000875af19250505080156115f357506040513d601f19601f820116820180604052508101906115f09190612b5d565b60015b611677573d8060008114611623576040519150601f19603f3d011682016040523d82523d6000602084013e611628565b606091505b50600081510361166f57836040517f64a0ae920000000000000000000000000000000000000000000000000000000081526004016116669190612145565b60405180910390fd5b805160208201fd5b63150b7a0260e01b7bffffffffffffffffffffffffffffffffffffffffffffffffffffffff1916817bffffffffffffffffffffffffffffffffffffffffffffffffffffffff19161461170057836040517f64a0ae920000000000000000000000000000000000000000000000000000000081526004016116f79190612145565b60405180910390fd5b505b5050505050565b600073ffffffffffffffffffffffffffffffffffffffff168273ffffffffffffffffffffffffffffffffffffffff160361177b5760006040517f64a0ae920000000000000000000000000000000000000000000000000000000081526004016117729190612145565b60405180910390fd5b600061178983836000611082565b9050600073ffffffffffffffffffffffffffffffffffffffff168173ffffffffffffffffffffffffffffffffffffffff16146117fd5760006040517f73c6ac6e0000000000000000000000000000000000000000000000000000000081526004016117f49190612145565b60405180910390fd5b505050565b8060066000848152602001908152602001600020908161182291906128fe565b507ff8e1a15aba9398e019f0b49df1a4fde98ee17ae345cb5f6b5e2c27f5033e8ce782604051611852919061225b565b60405180910390a15050565b606060405180602001604052806000815250905090565b606061188082610fa3565b50600061188b61185e565b905060008151116118ab57604051806020016040528060008152506118d6565b806118b584611c0e565b6040516020016118c6929190612a83565b6040516020818303038152906040525b915050919050565b60007f01ffc9a7000000000000000000000000000000000000000000000000000000007bffffffffffffffffffffffffffffffffffffffffffffffffffffffff1916827bffffffffffffffffffffffffffffffffffffffffffffffffffffffff1916149050919050565b60006002600083815260200190815260200160002060009054906101000a900473ffffffffffffffffffffffffffffffffffffffff169050919050565b80806119be5750600073ffffffffffffffffffffffffffffffffffffffff168273ffffffffffffffffffffffffffffffffffffffff1614155b15611af25760006119ce84610fa3565b9050600073ffffffffffffffffffffffffffffffffffffffff168373ffffffffffffffffffffffffffffffffffffffff1614158015611a3957508273ffffffffffffffffffffffffffffffffffffffff168173ffffffffffffffffffffffffffffffffffffffff1614155b8015611a4c5750611a4a8184610da7565b155b15611a8e57826040517fa9fbf51f000000000000000000000000000000000000000000000000000000008152600401611a859190612145565b60405180910390fd5b8115611af057838573ffffffffffffffffffffffffffffffffffffffff168273ffffffffffffffffffffffffffffffffffffffff167f8c5be1e5ebec7d5bd14f71427d1e84f3dd0314c0f7b2291e5b200ac8c7c3b92560405160405180910390a45b505b836004600085815260200190815260200160002060006101000a81548173ffffffffffffffffffffffffffffffffffffffff021916908373ffffffffffffffffffffffffffffffffffffffff16021790555050505050565b611b55838383611cdc565b611c0957600073ffffffffffffffffffffffffffffffffffffffff168373ffffffffffffffffffffffffffffffffffffffff1603611bca57806040517f7e273289000000000000000000000000000000000000000000000000000000008152600401611bc1919061225b565b60405180910390fd5b81816040517f177e802f000000000000000000000000000000000000000000000000000000008152600401611c00929190612b8a565b60405180910390fd5b505050565b606060006001611c1d84611d9d565b01905060008167ffffffffffffffff811115611c3c57611c3b612280565b5b6040519080825280601f01601f191660200182016040528015611c6e5781602001600182028036833780820191505090505b509050600082602083010190505b600115611cd1578080600190039150507f3031323334353637383961626364656600000000000000000000000000000000600a86061a8153600a8581611cc557611cc4612bb3565b5b04945060008503611c7c575b819350505050919050565b60008073ffffffffffffffffffffffffffffffffffffffff168373ffffffffffffffffffffffffffffffffffffffff1614158015611d9457508273ffffffffffffffffffffffffffffffffffffffff168473ffffffffffffffffffffffffffffffffffffffff161480611d555750611d548484610da7565b5b80611d9357508273ffffffffffffffffffffffffffffffffffffffff16611d7b8361102b565b73ffffffffffffffffffffffffffffffffffffffff16145b5b90509392505050565b600080600090507a184f03e93ff9f4daa797ed6e38ed64bf6a1f0100000000000000008310611dfb577a184f03e93ff9f4daa797ed6e38ed64bf6a1f0100000000000000008381611df157611df0612bb3565b5b0492506040810190505b6d04ee2d6d415b85acef81000000008310611e38576d04ee2d6d415b85acef81000000008381611e2e57611e2d612bb3565b5b0492506020810190505b662386f26fc100008310611e6757662386f26fc100008381611e5d57611e5c612bb3565b5b0492506010810190505b6305f5e1008310611e90576305f5e1008381611e8657611e85612bb3565b5b0492506008810190505b6127108310611eb5576127108381611eab57611eaa612bb3565b5b0492506004810190505b60648310611ed85760648381611ece57611ecd612bb3565b5b0492506002810190505b600a8310611ee7576001810190505b80915050919050565b6000604051905090565b600080fd5b600080fd5b60007fffffffff0000000000000000000000000000000000000000000000000000000082169050919050565b611f3981611f04565b8114611f4457600080fd5b50565b600081359050611f5681611f30565b92915050565b600060208284031215611f7257611f71611efa565b5b6000611f8084828501611f47565b91505092915050565b60008115159050919050565b611f9e81611f89565b82525050565b6000602082019050611fb96000830184611f95565b92915050565b600081519050919050565b600082825260208201905092915050565b60005b83811015611ff9578082015181840152602081019050611fde565b60008484015250505050565b6000601f19601f8301169050919050565b600061202182611fbf565b61202b8185611fca565b935061203b818560208601611fdb565b61204481612005565b840191505092915050565b600060208201905081810360008301526120698184612016565b905092915050565b6000819050919050565b61208481612071565b811461208f57600080fd5b50565b6000813590506120a18161207b565b92915050565b6000602082840312156120bd576120bc611efa565b5b60006120cb84828501612092565b91505092915050565b60006040820190506120e96000830185611f95565b81810360208301526120fb8184612016565b90509392505050565b600073ffffffffffffffffffffffffffffffffffffffff82169050919050565b600061212f82612104565b9050919050565b61213f81612124565b82525050565b600060208201905061215a6000830184612136565b92915050565b61216981612124565b811461217457600080fd5b50565b60008135905061218681612160565b92915050565b600080604083850312156121a3576121a2611efa565b5b60006121b185828601612177565b92505060206121c285828601612092565b9150509250929050565b6000806000606084860312156121e5576121e4611efa565b5b60006121f386828701612177565b935050602061220486828701612177565b925050604061221586828701612092565b9150509250925092565b60006020828403121561223557612234611efa565b5b600061224384828501612177565b91505092915050565b61225581612071565b82525050565b6000602082019050612270600083018461224c565b92915050565b600080fd5b600080fd5b7f4e487b7100000000000000000000000000000000000000000000000000000000600052604160045260246000fd5b6122b882612005565b810181811067ffffffffffffffff821117156122d7576122d6612280565b5b80604052505050565b60006122ea611ef0565b90506122f682826122af565b919050565b600067ffffffffffffffff82111561231657612315612280565b5b61231f82612005565b9050602081019050919050565b82818337600083830152505050565b600061234e612349846122fb565b6122e0565b90508281526020810184848401111561236a5761236961227b565b5b61237584828561232c565b509392505050565b600082601f83011261239257612391612276565b5b81356123a284826020860161233b565b91505092915050565b600080604083850312156123c2576123c1611efa565b5b60006123d085828601612092565b925050602083013567ffffffffffffffff8111156123f1576123f0611eff565b5b6123fd8582860161237d565b9150509250929050565b61241081611f89565b811461241b57600080fd5b50565b60008135905061242d81612407565b92915050565b6000806040838503121561244a57612449611efa565b5b600061245885828601612177565b92505060206124698582860161241e565b9150509250929050565b600067ffffffffffffffff82111561248e5761248d612280565b5b61249782612005565b9050602081019050919050565b60006124b76124b284612473565b6122e0565b9050828152602081018484840111156124d3576124d261227b565b5b6124de84828561232c565b509392505050565b600082601f8301126124fb576124fa612276565b5b813561250b8482602086016124a4565b91505092915050565b6000806000806080858703121561252e5761252d611efa565b5b600061253c87828801612177565b945050602061254d87828801612177565b935050604061255e87828801612092565b925050606085013567ffffffffffffffff81111561257f5761257e611eff565b5b61258b878288016124e6565b91505092959194509250565b600080604083850312156125ae576125ad611efa565b5b600083013567ffffffffffffffff8111156125cc576125cb611eff565b5b6125d88582860161237d565b925050602083013567ffffffffffffffff8111156125f9576125f8611eff565b5b6126058582860161237d565b9150509250929050565b6000806040838503121561262657612625611efa565b5b600061263485828601612177565b925050602061264585828601612177565b9150509250929050565b7f4e487b7100000000000000000000000000000000000000000000000000000000600052602260045260246000fd5b6000600282049050600182168061269657607f821691505b6020821081036126a9576126a861264f565b5b50919050565b60006060820190506126c46000830186612136565b6126d1602083018561224c565b6126de6040830184612136565b949350505050565b7f5965746b696e697a20796f6b0000000000000000000000000000000000000000600082015250565b600061271c600c83611fca565b9150612727826126e6565b602082019050919050565b6000602082019050818103600083015261274b8161270f565b9050919050565b60008190508160005260206000209050919050565b60006020601f8301049050919050565b600082821b905092915050565b6000600883026127b47fffffffffffffffffffffffffffffffffffffffffffffffffffffffffffffffff82612777565b6127be8683612777565b95508019841693508086168417925050509392505050565b6000819050919050565b60006127fb6127f66127f184612071565b6127d6565b612071565b9050919050565b6000819050919050565b612815836127e0565b61282961282182612802565b848454612784565b825550505050565b600090565b61283e612831565b61284981848461280c565b505050565b5b8181101561286d57612862600082612836565b60018101905061284f565b5050565b601f8211156128b25761288381612752565b61288c84612767565b8101602085101561289b578190505b6128af6128a785612767565b83018261284e565b50505b505050565b600082821c905092915050565b60006128d5600019846008026128b7565b1980831691505092915050565b60006128ee83836128c4565b9150826002028217905092915050565b61290782611fbf565b67ffffffffffffffff8111156129205761291f612280565b5b61292a825461267e565b612935828285612871565b600060209050601f8311600181146129685760008415612956578287015190505b61296085826128e2565b8655506129c8565b601f19841661297686612752565b60005b8281101561299e57848901518255600182019150602085019450602081019050612979565b868310156129bb57848901516129b7601f8916826128c4565b8355505b6001600288020188555050505b505050505050565b7f4e487b7100000000000000000000000000000000000000000000000000000000600052601160045260246000fd5b6000612a0a82612071565b91507fffffffffffffffffffffffffffffffffffffffffffffffffffffffffffffffff8203612a3c57612a3b6129d0565b5b600182019050919050565b600081905092915050565b6000612a5d82611fbf565b612a678185612a47565b9350612a77818560208601611fdb565b80840191505092915050565b6000612a8f8285612a52565b9150612a9b8284612a52565b91508190509392505050565b600081519050919050565b600082825260208201905092915050565b6000612ace82612aa7565b612ad88185612ab2565b9350612ae8818560208601611fdb565b612af181612005565b840191505092915050565b6000608082019050612b116000830187612136565b612b1e6020830186612136565b612b2b604083018561224c565b8181036060830152612b3d8184612ac3565b905095945050505050565b600081519050612b5781611f30565b92915050565b600060208284031215612b7357612b72611efa565b5b6000612b8184828501612b48565b91505092915050565b6000604082019050612b9f6000830185612136565b612bac602083018461224c565b9392505050565b7f4e487b7100000000000000000000000000000000000000000000000000000000600052601260045260246000fdfea26469706673582212203d5e5c08af940651f9768ad7fe569ac70f648a7ec426dbdb26f0dd988ae07e7364736f6c63430008140033",
    "linkReferences": {},
    "deployedLinkReferences": {}
}