{
  "_format": "hh-sol-artifact-1",
  "contractName": "DigitalPati",
  "sourceName": "contracts/DigitalPati.sol",
  "abi": [
    {
      "inputs": [],
      "stateMutability": "nonpayable",
      "type": "constructor"
    },
    {
      "inputs": [
        {
          "internalType": "address",
          "name": "sender",
          "type": "address"
        },
        {
          "internalType": "uint256",
          "name": "tokenId",
          "type": "uint256"
        },
        {
          "internalType": "address",
          "name": "owner",
          "type": "address"
        }
      ],
      "name": "ERC721IncorrectOwner",
      "type": "error"
    },
    {
      "inputs": [
        {
          "internalType": "address",
          "name": "operator",
          "type": "address"
        },
        {
          "internalType": "uint256",
          "name": "tokenId",
          "type": "uint256"
        }
      ],
      "name": "ERC721InsufficientApproval",
      "type": "error"
    },
    {
      "inputs": [
        {
          "internalType": "address",
          "name": "approver",
          "type": "address"
        }
      ],
      "name": "ERC721InvalidApprover",
      "type": "error"
    },
    {
      "inputs": [
        {
          "internalType": "address",
          "name": "operator",
          "type": "address"
        }
      ],
      "name": "ERC721InvalidOperator",
      "type": "error"
    },
    {
      "inputs": [
        {
          "internalType": "address",
          "name": "owner",
          "type": "address"
        }
      ],
      "name": "ERC721InvalidOwner",
      "type": "error"
    },
    {
      "inputs": [
        {
          "internalType": "address",
          "name": "receiver",
          "type": "address"
        }
      ],
      "name": "ERC721InvalidReceiver",
      "type": "error"
    },
    {
      "inputs": [
        {
          "internalType": "address",
          "name": "sender",
          "type": "address"
        }
      ],
      "name": "ERC721InvalidSender",
      "type": "error"
    },
    {
      "inputs": [
        {
          "internalType": "uint256",
          "name": "tokenId",
          "type": "uint256"
        }
      ],
      "name": "ERC721NonexistentToken",
      "type": "error"
    },
    {
      "inputs": [
        {
          "internalType": "address",
          "name": "owner",
          "type": "address"
        }
      ],
      "name": "OwnableInvalidOwner",
      "type": "error"
    },
    {
      "inputs": [
        {
          "internalType": "address",
          "name": "account",
          "type": "address"
        }
      ],
      "name": "OwnableUnauthorizedAccount",
      "type": "error"
    },
    {
      "anonymous": false,
      "inputs": [
        {
          "indexed": true,
          "internalType": "address",
          "name": "owner",
          "type": "address"
        },
        {
          "indexed": true,
          "internalType": "address",
          "name": "approved",
          "type": "address"
        },
        {
          "indexed": true,
          "internalType": "uint256",
          "name": "tokenId",
          "type": "uint256"
        }
      ],
      "name": "Approval",
      "type": "event"
    },
    {
      "anonymous": false,
      "inputs": [
        {
          "indexed": true,
          "internalType": "address",
          "name": "owner",
          "type": "address"
        },
        {
          "indexed": true,
          "internalType": "address",
          "name": "operator",
          "type": "address"
        },
        {
          "indexed": false,
          "internalType": "bool",
          "name": "approved",
          "type": "bool"
        }
      ],
      "name": "ApprovalForAll",
      "type": "event"
    },
    {
      "anonymous": false,
      "inputs": [
        {
          "indexed": false,
          "internalType": "uint256",
          "name": "_fromTokenId",
          "type": "uint256"
        },
        {
          "indexed": false,
          "internalType": "uint256",
          "name": "_toTokenId",
          "type": "uint256"
        }
      ],
      "name": "BatchMetadataUpdate",
      "type": "event"
    },
    {
      "anonymous": false,
      "inputs": [
        {
          "indexed": false,
          "internalType": "address",
          "name": "from",
          "type": "address"
        },
        {
          "indexed": false,
          "internalType": "uint256",
          "name": "amount",
          "type": "uint256"
        }
      ],
      "name": "FeePaid",
      "type": "event"
    },
    {
      "anonymous": false,
      "inputs": [
        {
          "indexed": false,
          "internalType": "uint256",
          "name": "_tokenId",
          "type": "uint256"
        }
      ],
      "name": "MetadataUpdate",
      "type": "event"
    },
    {
      "anonymous": false,
      "inputs": [
        {
          "indexed": true,
          "internalType": "address",
          "name": "previousOwner",
          "type": "address"
        },
        {
          "indexed": true,
          "internalType": "address",
          "name": "newOwner",
          "type": "address"
        }
      ],
      "name": "OwnershipTransferred",
      "type": "event"
    },
    {
      "anonymous": false,
      "inputs": [
        {
          "indexed": true,
          "internalType": "uint256",
          "name": "tokenId",
          "type": "uint256"
        },
        {
          "indexed": false,
          "internalType": "address",
          "name": "owner",
          "type": "address"
        }
      ],
      "name": "PetMinted",
      "type": "event"
    },
    {
      "anonymous": false,
      "inputs": [
        {
          "indexed": true,
          "internalType": "uint256",
          "name": "tokenId",
          "type": "uint256"
        },
        {
          "indexed": false,
          "internalType": "bool",
          "name": "isLost",
          "type": "bool"
        }
      ],
      "name": "PetStatusChanged",
      "type": "event"
    },
    {
      "anonymous": false,
      "inputs": [
        {
          "indexed": true,
          "internalType": "address",
          "name": "from",
          "type": "address"
        },
        {
          "indexed": true,
          "internalType": "address",
          "name": "to",
          "type": "address"
        },
        {
          "indexed": true,
          "internalType": "uint256",
          "name": "tokenId",
          "type": "uint256"
        }
      ],
      "name": "Transfer",
      "type": "event"
    },
    {
      "inputs": [],
      "name": "LOST_REPORT_FEE",
      "outputs": [
        {
          "internalType": "uint256",
          "name": "",
          "type": "uint256"
        }
      ],
      "stateMutability": "view",
      "type": "function"
    },
    {
      "inputs": [
        {
          "internalType": "address",
          "name": "to",
          "type": "address"
        },
        {
          "internalType": "uint256",
          "name": "tokenId",
          "type": "uint256"
        }
      ],
      "name": "approve",
      "outputs": [],
      "stateMutability": "nonpayable",
      "type": "function"
    },
    {
      "inputs": [
        {
          "internalType": "address",
          "name": "owner",
          "type": "address"
        }
      ],
      "name": "balanceOf",
      "outputs": [
        {
          "internalType": "uint256",
          "name": "",
          "type": "uint256"
        }
      ],
      "stateMutability": "view",
      "type": "function"
    },
    {
      "inputs": [
        {
          "internalType": "uint256",
          "name": "tokenId",
          "type": "uint256"
        }
      ],
      "name": "getApproved",
      "outputs": [
        {
          "internalType": "address",
          "name": "",
          "type": "address"
        }
      ],
      "stateMutability": "view",
      "type": "function"
    },
    {
      "inputs": [
        {
          "internalType": "uint256",
          "name": "tokenId",
          "type": "uint256"
        }
      ],
      "name": "getPetStatus",
      "outputs": [
        {
          "internalType": "bool",
          "name": "isLost",
          "type": "bool"
        },
        {
          "internalType": "string",
          "name": "contactInfo",
          "type": "string"
        }
      ],
      "stateMutability": "view",
      "type": "function"
    },
    {
      "inputs": [
        {
          "internalType": "address",
          "name": "owner",
          "type": "address"
        },
        {
          "internalType": "address",
          "name": "operator",
          "type": "address"
        }
      ],
      "name": "isApprovedForAll",
      "outputs": [
        {
          "internalType": "bool",
          "name": "",
          "type": "bool"
        }
      ],
      "stateMutability": "view",
      "type": "function"
    },
    {
      "inputs": [
        {
          "internalType": "string",
          "name": "tokenURI",
          "type": "string"
        },
        {
          "internalType": "string",
          "name": "contactInfo",
          "type": "string"
        }
      ],
      "name": "mintPet",
      "outputs": [
        {
          "internalType": "uint256",
          "name": "",
          "type": "uint256"
        }
      ],
      "stateMutability": "nonpayable",
      "type": "function"
    },
    {
      "inputs": [],
      "name": "name",
      "outputs": [
        {
          "internalType": "string",
          "name": "",
          "type": "string"
        }
      ],
      "stateMutability": "view",
      "type": "function"
    },
    {
      "inputs": [],
      "name": "owner",
      "outputs": [
        {
          "internalType": "address",
          "name": "",
          "type": "address"
        }
      ],
      "stateMutability": "view",
      "type": "function"
    },
    {
      "inputs": [
        {
          "internalType": "uint256",
          "name": "tokenId",
          "type": "uint256"
        }
      ],
      "name": "ownerOf",
      "outputs": [
        {
          "internalType": "address",
          "name": "",
          "type": "address"
        }
      ],
      "stateMutability": "view",
      "type": "function"
    },
    {
      "inputs": [
        {
          "internalType": "uint256",
          "name": "",
          "type": "uint256"
        }
      ],
      "name": "pets",
      "outputs": [
        {
          "internalType": "bool",
          "name": "isLost",
          "type": "bool"
        },
        {
          "internalType": "string",
          "name": "contactInfo",
          "type": "string"
        }
      ],
      "stateMutability": "view",
      "type": "function"
    },
    {
      "inputs": [],
      "name": "renounceOwnership",
      "outputs": [],
      "stateMutability": "nonpayable",
      "type": "function"
    },
    {
      "inputs": [
        {
          "internalType": "address",
          "name": "from",
          "type": "address"
        },
        {
          "internalType": "address",
          "name": "to",
          "type": "address"
        },
        {
          "internalType": "uint256",
          "name": "tokenId",
          "type": "uint256"
        }
      ],
      "name": "safeTransferFrom",
      "outputs": [],
      "stateMutability": "nonpayable",
      "type": "function"
    },
    {
      "inputs": [
        {
          "internalType": "address",
          "name": "from",
          "type": "address"
        },
        {
          "internalType": "address",
          "name": "to",
          "type": "address"
        },
        {
          "internalType": "uint256",
          "name": "tokenId",
          "type": "uint256"
        },
        {
          "internalType": "bytes",
          "name": "data",
          "type": "bytes"
        }
      ],
      "name": "safeTransferFrom",
      "outputs": [],
      "stateMutability": "nonpayable",
      "type": "function"
    },
    {
      "inputs": [
        {
          "internalType": "address",
          "name": "operator",
          "type": "address"
        },
        {
          "internalType": "bool",
          "name": "approved",
          "type": "bool"
        }
      ],
      "name": "setApprovalForAll",
      "outputs": [],
      "stateMutability": "nonpayable",
      "type": "function"
    },
    {
      "inputs": [
        {
          "internalType": "bytes4",
          "name": "interfaceId",
          "type": "bytes4"
        }
      ],
      "name": "supportsInterface",
      "outputs": [
        {
          "internalType": "bool",
          "name": "",
          "type": "bool"
        }
      ],
      "stateMutability": "view",
      "type": "function"
    },
    {
      "inputs": [],
      "name": "symbol",
      "outputs": [
        {
          "internalType": "string",
          "name": "",
          "type": "string"
        }
      ],
      "stateMutability": "view",
      "type": "function"
    },
    {
      "inputs": [
        {
          "internalType": "uint256",
          "name": "tokenId",
          "type": "uint256"
        }
      ],
      "name": "toggleLostStatus",
      "outputs": [],
      "stateMutability": "payable",
      "type": "function"
    },
    {
      "inputs": [
        {
          "internalType": "uint256",
          "name": "tokenId",
          "type": "uint256"
        }
      ],
      "name": "tokenURI",
      "outputs": [
        {
          "internalType": "string",
          "name": "",
          "type": "string"
        }
      ],
      "stateMutability": "view",
      "type": "function"
    },
    {
      "inputs": [],
      "name": "totalSupply",
      "outputs": [
        {
          "internalType": "uint256",
          "name": "",
          "type": "uint256"
        }
      ],
      "stateMutability": "view",
      "type": "function"
    },
    {
      "inputs": [
        {
          "internalType": "address",
          "name": "from",
          "type": "address"
        },
        {
          "internalType": "address",
          "name": "to",
          "type": "address"
        },
        {
          "internalType": "uint256",
          "name": "tokenId",
          "type": "uint256"
        }
      ],
      "name": "transferFrom",
      "outputs": [],
      "stateMutability": "nonpayable",
      "type": "function"
    },
    {
      "inputs": [
        {
          "internalType": "address",
          "name": "newOwner",
          "type": "address"
        }
      ],
      "name": "transferOwnership",
      "outputs": [],
      "stateMutability": "nonpayable",
      "type": "function"
    },
    {
      "inputs": [
        {
          "internalType": "uint256",
          "name": "tokenId",
          "type": "uint256"
        },
        {
          "internalType": "string",
          "name": "newContactInfo",
          "type": "string"
        }
      ],
      "name": "updateContactInfo",
      "outputs": [],
      "stateMutability": "nonpayable",
      "type": "function"
    }
  ],
  "bytecode": "0x60806040523480156200001157600080fd5b50336040518060400160405280600b81526020017f44696a6974616c506174690000000000000000000000000000000000000000008152506040518060400160405280600481526020017f5041544900000000000000000000000000000000000000000000000000000000815250816000908162000090919062000472565b508060019081620000a2919062000472565b505050600073ffffffffffffffffffffffffffffffffffffffff168173ffffffffffffffffffffffffffffffffffffffff16036200011a5760006040517f1e4fbdf70000000000000000000000000000000000000000000000000000000081526004016200011191906200059e565b60405180910390fd5b6200012b816200013260201b60201c565b50620005bb565b6000600760009054906101000a900473ffffffffffffffffffffffffffffffffffffffff16905081600760006101000a81548173ffffffffffffffffffffffffffffffffffffffff021916908373ffffffffffffffffffffffffffffffffffffffff1602179055508173ffffffffffffffffffffffffffffffffffffffff168173ffffffffffffffffffffffffffffffffffffffff167f8be0079c531659141344cd1fd0a4f28419497f9722a3daafe3b4186f6b6457e060405160405180910390a35050565b600081519050919050565b7f4e487b7100000000000000000000000000000000000000000000000000000000600052604160045260246000fd5b7f4e487b7100000000000000000000000000000000000000000000000000000000600052602260045260246000fd5b600060028204905060018216806200027a57607f821691505b60208210810362000290576200028f62000232565b5b50919050565b60008190508160005260206000209050919050565b60006020601f8301049050919050565b600082821b905092915050565b600060088302620002fa7fffffffffffffffffffffffffffffffffffffffffffffffffffffffffffffffff82620002bb565b620003068683620002bb565b95508019841693508086168417925050509392505050565b6000819050919050565b6000819050919050565b6000620003536200034d62000347846200031e565b62000328565b6200031e565b9050919050565b6000819050919050565b6200036f8362000332565b620003876200037e826200035a565b848454620002c8565b825550505050565b600090565b6200039e6200038f565b620003ab81848462000364565b505050565b5b81811015620003d357620003c760008262000394565b600181019050620003b1565b5050565b601f8211156200042257620003ec8162000296565b620003f784620002ab565b8101602085101562000407578190505b6200041f6200041685620002ab565b830182620003b0565b50505b505050565b600082821c905092915050565b6000620004476000198460080262000427565b1980831691505092915050565b600062000462838362000434565b9150826002028217905092915050565b6200047d82620001f8565b67ffffffffffffffff81111562000499576200049862000203565b5b620004a5825462000261565b620004b2828285620003d7565b600060209050601f831160018114620004ea5760008415620004d5578287015190505b620004e1858262000454565b86555062000551565b601f198416620004fa8662000296565b60005b828110156200052457848901518255600182019150602085019450602081019050620004fd565b8683101562000544578489015162000540601f89168262000434565b8355505b6001600288020188555050505b505050505050565b600073ffffffffffffffffffffffffffffffffffffffff82169050919050565b6000620005868262000559565b9050919050565b620005988162000579565b82525050565b6000602082019050620005b560008301846200058d565b92915050565b612f5880620005cb6000396000f3fe6080604052600436106101405760003560e01c8063715018a6116100b6578063b88d4fde1161006f578063b88d4fde1461044e578063b890773214610477578063c87b56dd146104b4578063cfb869bf146104f1578063e985e9c51461052f578063f2fde38b1461056c57610140565b8063715018a6146103645780638da5cb5b1461037b5780639293d554146103a657806395d89b41146103cf578063a22cb465146103fa578063a317e7101461042357610140565b806318160ddd1161010857806318160ddd1461025157806323b872dd1461027c57806342842e0e146102a55780636352211e146102ce5780636a37870c1461030b57806370a082311461032757610140565b806301ffc9a71461014557806306fdde031461018257806308062e1f146101ad578063081812fc146101eb578063095ea7b314610228575b600080fd5b34801561015157600080fd5b5061016c6004803603810190610167919061219e565b610595565b60405161017991906121e6565b60405180910390f35b34801561018e57600080fd5b506101976105f6565b6040516101a49190612291565b60405180910390f35b3480156101b957600080fd5b506101d460048036038101906101cf91906122e9565b610688565b6040516101e2929190612316565b60405180910390f35b3480156101f757600080fd5b50610212600480360381019061020d91906122e9565b610779565b60405161021f9190612387565b60405180910390f35b34801561023457600080fd5b5061024f600480360381019061024a91906123ce565b610795565b005b34801561025d57600080fd5b506102666107ab565b604051610273919061241d565b60405180910390f35b34801561028857600080fd5b506102a3600480360381019061029e9190612438565b6107b5565b005b3480156102b157600080fd5b506102cc60048036038101906102c79190612438565b6108b7565b005b3480156102da57600080fd5b506102f560048036038101906102f091906122e9565b6108d7565b6040516103029190612387565b60405180910390f35b610325600480360381019061032091906122e9565b6108e9565b005b34801561033357600080fd5b5061034e6004803603810190610349919061248b565b610ad9565b60405161035b919061241d565b60405180910390f35b34801561037057600080fd5b50610379610b93565b005b34801561038757600080fd5b50610390610ba7565b60405161039d9190612387565b60405180910390f35b3480156103b257600080fd5b506103cd60048036038101906103c891906125ed565b610bd1565b005b3480156103db57600080fd5b506103e4610c6f565b6040516103f19190612291565b60405180910390f35b34801561040657600080fd5b50610421600480360381019061041c9190612675565b610d01565b005b34801561042f57600080fd5b50610438610d17565b604051610445919061241d565b60405180910390f35b34801561045a57600080fd5b5061047560048036038101906104709190612756565b610d22565b005b34801561048357600080fd5b5061049e600480360381019061049991906127d9565b610d47565b6040516104ab919061241d565b60405180910390f35b3480156104c057600080fd5b506104db60048036038101906104d691906122e9565b610e1d565b6040516104e89190612291565b60405180910390f35b3480156104fd57600080fd5b50610518600480360381019061051391906122e9565b610f30565b604051610526929190612316565b60405180910390f35b34801561053b57600080fd5b5061055660048036038101906105519190612851565b610fe9565b60405161056391906121e6565b60405180910390f35b34801561057857600080fd5b50610593600480360381019061058e919061248b565b61107d565b005b6000634906490660e01b7bffffffffffffffffffffffffffffffffffffffffffffffffffffffff1916827bffffffffffffffffffffffffffffffffffffffffffffffffffffffff191614806105ef57506105ee82611103565b5b9050919050565b606060008054610605906128c0565b80601f0160208091040260200160405190810160405280929190818152602001828054610631906128c0565b801561067e5780601f106106535761010080835404028352916020019161067e565b820191906000526020600020905b81548152906001019060200180831161066157829003601f168201915b5050505050905090565b60006060610695836111e5565b506000600960008581526020019081526020016000206040518060400160405290816000820160009054906101000a900460ff161515151581526020016001820180546106e1906128c0565b80601f016020809104026020016040519081016040528092919081815260200182805461070d906128c0565b801561075a5780601f1061072f5761010080835404028352916020019161075a565b820191906000526020600020905b81548152906001019060200180831161073d57829003601f168201915b5050505050815250509050806000015181602001519250925050915091565b6000610784826111e5565b5061078e8261126d565b9050919050565b6107a782826107a26112aa565b6112b2565b5050565b6000600854905090565b600073ffffffffffffffffffffffffffffffffffffffff168273ffffffffffffffffffffffffffffffffffffffff16036108275760006040517f64a0ae9200000000000000000000000000000000000000000000000000000000815260040161081e9190612387565b60405180910390fd5b600061083b83836108366112aa565b6112c4565b90508373ffffffffffffffffffffffffffffffffffffffff168173ffffffffffffffffffffffffffffffffffffffff16146108b1578382826040517f64283d7b0000000000000000000000000000000000000000000000000000000081526004016108a8939291906128f1565b60405180910390fd5b50505050565b6108d283838360405180602001604052806000815250610d22565b505050565b60006108e2826111e5565b9050919050565b3373ffffffffffffffffffffffffffffffffffffffff16610909826108d7565b73ffffffffffffffffffffffffffffffffffffffff161461095f576040517f08c379a000000000000000000000000000000000000000000000000000000000815260040161095690612974565b60405180910390fd5b60006009600083815260200190815260200160002090508060000160009054906101000a900460ff16610a5e5766038d7ea4c680003410156109d6576040517f08c379a00000000000000000000000000000000000000000000000000000000081526004016109cd90612a06565b60405180910390fd5b6109de610ba7565b73ffffffffffffffffffffffffffffffffffffffff166108fc349081150290604051600060405180830381858888f19350505050158015610a23573d6000803e3d6000fd5b507f075a2720282fdf622141dae0b048ef90a21a7e57c134c76912d19d006b3b3f6f3334604051610a55929190612a26565b60405180910390a15b8060000160009054906101000a900460ff16158160000160006101000a81548160ff021916908315150217905550817f46170ba694f5e2ec47d544b17cd3cb477f9002aaab0620d8e0e62239326c050b8260000160009054906101000a900460ff16604051610acd91906121e6565b60405180910390a25050565b60008073ffffffffffffffffffffffffffffffffffffffff168273ffffffffffffffffffffffffffffffffffffffff1603610b4c5760006040517f89c62b64000000000000000000000000000000000000000000000000000000008152600401610b439190612387565b60405180910390fd5b600360008373ffffffffffffffffffffffffffffffffffffffff1673ffffffffffffffffffffffffffffffffffffffff168152602001908152602001600020549050919050565b610b9b6114de565b610ba56000611565565b565b6000600760009054906101000a900473ffffffffffffffffffffffffffffffffffffffff16905090565b3373ffffffffffffffffffffffffffffffffffffffff16610bf1836108d7565b73ffffffffffffffffffffffffffffffffffffffff1614610c47576040517f08c379a0000000000000000000000000000000000000000000000000000000008152600401610c3e90612a9b565b60405180910390fd5b80600960008481526020019081526020016000206001019081610c6a9190612c67565b505050565b606060018054610c7e906128c0565b80601f0160208091040260200160405190810160405280929190818152602001828054610caa906128c0565b8015610cf75780601f10610ccc57610100808354040283529160200191610cf7565b820191906000526020600020905b815481529060010190602001808311610cda57829003601f168201915b5050505050905090565b610d13610d0c6112aa565b838361162b565b5050565b66038d7ea4c6800081565b610d2d8484846107b5565b610d41610d386112aa565b8585858561179a565b50505050565b60008060086000815480929190610d5d90612d68565b919050559050610d6d338261194b565b610d778185611a44565b6040518060400160405280600015158152602001848152506009600083815260200190815260200160002060008201518160000160006101000a81548160ff0219169083151502179055506020820151816001019081610dd79190612c67565b50905050807f73ba744eb658f3bf1d93220b8b6d58e78060c370f57ce2cd3e54a7757a2332d433604051610e0b9190612387565b60405180910390a28091505092915050565b6060610e28826111e5565b506000600660008481526020019081526020016000208054610e49906128c0565b80601f0160208091040260200160405190810160405280929190818152602001828054610e75906128c0565b8015610ec25780601f10610e9757610100808354040283529160200191610ec2565b820191906000526020600020905b815481529060010190602001808311610ea557829003601f168201915b505050505090506000610ed3611aa0565b90506000815103610ee8578192505050610f2b565b600082511115610f1d578082604051602001610f05929190612dec565b60405160208183030381529060405292505050610f2b565b610f2684611ab7565b925050505b919050565b60096020528060005260406000206000915090508060000160009054906101000a900460ff1690806001018054610f66906128c0565b80601f0160208091040260200160405190810160405280929190818152602001828054610f92906128c0565b8015610fdf5780601f10610fb457610100808354040283529160200191610fdf565b820191906000526020600020905b815481529060010190602001808311610fc257829003601f168201915b5050505050905082565b6000600560008473ffffffffffffffffffffffffffffffffffffffff1673ffffffffffffffffffffffffffffffffffffffff16815260200190815260200160002060008373ffffffffffffffffffffffffffffffffffffffff1673ffffffffffffffffffffffffffffffffffffffff16815260200190815260200160002060009054906101000a900460ff16905092915050565b6110856114de565b600073ffffffffffffffffffffffffffffffffffffffff168173ffffffffffffffffffffffffffffffffffffffff16036110f75760006040517f1e4fbdf70000000000000000000000000000000000000000000000000000000081526004016110ee9190612387565b60405180910390fd5b61110081611565565b50565b60007f80ac58cd000000000000000000000000000000000000000000000000000000007bffffffffffffffffffffffffffffffffffffffffffffffffffffffff1916827bffffffffffffffffffffffffffffffffffffffffffffffffffffffff191614806111ce57507f5b5e139f000000000000000000000000000000000000000000000000000000007bffffffffffffffffffffffffffffffffffffffffffffffffffffffff1916827bffffffffffffffffffffffffffffffffffffffffffffffffffffffff1916145b806111de57506111dd82611b20565b5b9050919050565b6000806111f183611b8a565b9050600073ffffffffffffffffffffffffffffffffffffffff168173ffffffffffffffffffffffffffffffffffffffff160361126457826040517f7e27328900000000000000000000000000000000000000000000000000000000815260040161125b919061241d565b60405180910390fd5b80915050919050565b60006004600083815260200190815260200160002060009054906101000a900473ffffffffffffffffffffffffffffffffffffffff169050919050565b600033905090565b6112bf8383836001611bc7565b505050565b6000806112d084611b8a565b9050600073ffffffffffffffffffffffffffffffffffffffff168373ffffffffffffffffffffffffffffffffffffffff161461131257611311818486611d8c565b5b600073ffffffffffffffffffffffffffffffffffffffff168173ffffffffffffffffffffffffffffffffffffffff16146113a357611354600085600080611bc7565b6001600360008373ffffffffffffffffffffffffffffffffffffffff1673ffffffffffffffffffffffffffffffffffffffff168152602001908152602001600020600082825403925050819055505b600073ffffffffffffffffffffffffffffffffffffffff168573ffffffffffffffffffffffffffffffffffffffff1614611426576001600360008773ffffffffffffffffffffffffffffffffffffffff1673ffffffffffffffffffffffffffffffffffffffff168152602001908152602001600020600082825401925050819055505b846002600086815260200190815260200160002060006101000a81548173ffffffffffffffffffffffffffffffffffffffff021916908373ffffffffffffffffffffffffffffffffffffffff160217905550838573ffffffffffffffffffffffffffffffffffffffff168273ffffffffffffffffffffffffffffffffffffffff167fddf252ad1be2c89b69c2b068fc378daa952ba7f163c4a11628f55a4df523b3ef60405160405180910390a4809150509392505050565b6114e66112aa565b73ffffffffffffffffffffffffffffffffffffffff16611504610ba7565b73ffffffffffffffffffffffffffffffffffffffff1614611563576115276112aa565b6040517f118cdaa700000000000000000000000000000000000000000000000000000000815260040161155a9190612387565b60405180910390fd5b565b6000600760009054906101000a900473ffffffffffffffffffffffffffffffffffffffff16905081600760006101000a81548173ffffffffffffffffffffffffffffffffffffffff021916908373ffffffffffffffffffffffffffffffffffffffff1602179055508173ffffffffffffffffffffffffffffffffffffffff168173ffffffffffffffffffffffffffffffffffffffff167f8be0079c531659141344cd1fd0a4f28419497f9722a3daafe3b4186f6b6457e060405160405180910390a35050565b600073ffffffffffffffffffffffffffffffffffffffff168273ffffffffffffffffffffffffffffffffffffffff160361169c57816040517f5b08ba180000000000000000000000000000000000000000000000000000000081526004016116939190612387565b60405180910390fd5b80600560008573ffffffffffffffffffffffffffffffffffffffff1673ffffffffffffffffffffffffffffffffffffffff16815260200190815260200160002060008473ffffffffffffffffffffffffffffffffffffffff1673ffffffffffffffffffffffffffffffffffffffff16815260200190815260200160002060006101000a81548160ff0219169083151502179055508173ffffffffffffffffffffffffffffffffffffffff168373ffffffffffffffffffffffffffffffffffffffff167f17307eab39ab6107e8899845ad3d59bd9653f200f220920489ca2b5937696c318360405161178d91906121e6565b60405180910390a3505050565b60008373ffffffffffffffffffffffffffffffffffffffff163b1115611944578273ffffffffffffffffffffffffffffffffffffffff1663150b7a02868685856040518563ffffffff1660e01b81526004016117f99493929190612e65565b6020604051808303816000875af192505050801561183557506040513d601f19601f820116820180604052508101906118329190612ec6565b60015b6118b9573d8060008114611865576040519150601f19603f3d011682016040523d82523d6000602084013e61186a565b606091505b5060008151036118b157836040517f64a0ae920000000000000000000000000000000000000000000000000000000081526004016118a89190612387565b60405180910390fd5b805160208201fd5b63150b7a0260e01b7bffffffffffffffffffffffffffffffffffffffffffffffffffffffff1916817bffffffffffffffffffffffffffffffffffffffffffffffffffffffff19161461194257836040517f64a0ae920000000000000000000000000000000000000000000000000000000081526004016119399190612387565b60405180910390fd5b505b5050505050565b600073ffffffffffffffffffffffffffffffffffffffff168273ffffffffffffffffffffffffffffffffffffffff16036119bd5760006040517f64a0ae920000000000000000000000000000000000000000000000000000000081526004016119b49190612387565b60405180910390fd5b60006119cb838360006112c4565b9050600073ffffffffffffffffffffffffffffffffffffffff168173ffffffffffffffffffffffffffffffffffffffff1614611a3f5760006040517f73c6ac6e000000000000000000000000000000000000000000000000000000008152600401611a369190612387565b60405180910390fd5b505050565b80600660008481526020019081526020016000209081611a649190612c67565b507ff8e1a15aba9398e019f0b49df1a4fde98ee17ae345cb5f6b5e2c27f5033e8ce782604051611a94919061241d565b60405180910390a15050565b606060405180602001604052806000815250905090565b6060611ac2826111e5565b506000611acd611aa0565b90506000815111611aed5760405180602001604052806000815250611b18565b80611af784611e50565b604051602001611b08929190612dec565b6040516020818303038152906040525b915050919050565b60007f01ffc9a7000000000000000000000000000000000000000000000000000000007bffffffffffffffffffffffffffffffffffffffffffffffffffffffff1916827bffffffffffffffffffffffffffffffffffffffffffffffffffffffff1916149050919050565b60006002600083815260200190815260200160002060009054906101000a900473ffffffffffffffffffffffffffffffffffffffff169050919050565b8080611c005750600073ffffffffffffffffffffffffffffffffffffffff168273ffffffffffffffffffffffffffffffffffffffff1614155b15611d34576000611c10846111e5565b9050600073ffffffffffffffffffffffffffffffffffffffff168373ffffffffffffffffffffffffffffffffffffffff1614158015611c7b57508273ffffffffffffffffffffffffffffffffffffffff168173ffffffffffffffffffffffffffffffffffffffff1614155b8015611c8e5750611c8c8184610fe9565b155b15611cd057826040517fa9fbf51f000000000000000000000000000000000000000000000000000000008152600401611cc79190612387565b60405180910390fd5b8115611d3257838573ffffffffffffffffffffffffffffffffffffffff168273ffffffffffffffffffffffffffffffffffffffff167f8c5be1e5ebec7d5bd14f71427d1e84f3dd0314c0f7b2291e5b200ac8c7c3b92560405160405180910390a45b505b836004600085815260200190815260200160002060006101000a81548173ffffffffffffffffffffffffffffffffffffffff021916908373ffffffffffffffffffffffffffffffffffffffff16021790555050505050565b611d97838383611f1e565b611e4b57600073ffffffffffffffffffffffffffffffffffffffff168373ffffffffffffffffffffffffffffffffffffffff1603611e0c57806040517f7e273289000000000000000000000000000000000000000000000000000000008152600401611e03919061241d565b60405180910390fd5b81816040517f177e802f000000000000000000000000000000000000000000000000000000008152600401611e42929190612a26565b60405180910390fd5b505050565b606060006001611e5f84611fdf565b01905060008167ffffffffffffffff811115611e7e57611e7d6124c2565b5b6040519080825280601f01601f191660200182016040528015611eb05781602001600182028036833780820191505090505b509050600082602083010190505b600115611f13578080600190039150507f3031323334353637383961626364656600000000000000000000000000000000600a86061a8153600a8581611f0757611f06612ef3565b5b04945060008503611ebe575b819350505050919050565b60008073ffffffffffffffffffffffffffffffffffffffff168373ffffffffffffffffffffffffffffffffffffffff1614158015611fd657508273ffffffffffffffffffffffffffffffffffffffff168473ffffffffffffffffffffffffffffffffffffffff161480611f975750611f968484610fe9565b5b80611fd557508273ffffffffffffffffffffffffffffffffffffffff16611fbd8361126d565b73ffffffffffffffffffffffffffffffffffffffff16145b5b90509392505050565b600080600090507a184f03e93ff9f4daa797ed6e38ed64bf6a1f010000000000000000831061203d577a184f03e93ff9f4daa797ed6e38ed64bf6a1f010000000000000000838161203357612032612ef3565b5b0492506040810190505b6d04ee2d6d415b85acef8100000000831061207a576d04ee2d6d415b85acef810000000083816120705761206f612ef3565b5b0492506020810190505b662386f26fc1000083106120a957662386f26fc10000838161209f5761209e612ef3565b5b0492506010810190505b6305f5e10083106120d2576305f5e10083816120c8576120c7612ef3565b5b0492506008810190505b61271083106120f75761271083816120ed576120ec612ef3565b5b0492506004810190505b6064831061211a57606483816121105761210f612ef3565b5b0492506002810190505b600a8310612129576001810190505b80915050919050565b6000604051905090565b600080fd5b600080fd5b60007fffffffff0000000000000000000000000000000000000000000000000000000082169050919050565b61217b81612146565b811461218657600080fd5b50565b60008135905061219881612172565b92915050565b6000602082840312156121b4576121b361213c565b5b60006121c284828501612189565b91505092915050565b60008115159050919050565b6121e0816121cb565b82525050565b60006020820190506121fb60008301846121d7565b92915050565b600081519050919050565b600082825260208201905092915050565b60005b8381101561223b578082015181840152602081019050612220565b60008484015250505050565b6000601f19601f8301169050919050565b600061226382612201565b61226d818561220c565b935061227d81856020860161221d565b61228681612247565b840191505092915050565b600060208201905081810360008301526122ab8184612258565b905092915050565b6000819050919050565b6122c6816122b3565b81146122d157600080fd5b50565b6000813590506122e3816122bd565b92915050565b6000602082840312156122ff576122fe61213c565b5b600061230d848285016122d4565b91505092915050565b600060408201905061232b60008301856121d7565b818103602083015261233d8184612258565b90509392505050565b600073ffffffffffffffffffffffffffffffffffffffff82169050919050565b600061237182612346565b9050919050565b61238181612366565b82525050565b600060208201905061239c6000830184612378565b92915050565b6123ab81612366565b81146123b657600080fd5b50565b6000813590506123c8816123a2565b92915050565b600080604083850312156123e5576123e461213c565b5b60006123f3858286016123b9565b9250506020612404858286016122d4565b9150509250929050565b612417816122b3565b82525050565b6000602082019050612432600083018461240e565b92915050565b6000806000606084860312156124515761245061213c565b5b600061245f868287016123b9565b9350506020612470868287016123b9565b9250506040612481868287016122d4565b9150509250925092565b6000602082840312156124a1576124a061213c565b5b60006124af848285016123b9565b91505092915050565b600080fd5b600080fd5b7f4e487b7100000000000000000000000000000000000000000000000000000000600052604160045260246000fd5b6124fa82612247565b810181811067ffffffffffffffff82111715612519576125186124c2565b5b80604052505050565b600061252c612132565b905061253882826124f1565b919050565b600067ffffffffffffffff821115612558576125576124c2565b5b61256182612247565b9050602081019050919050565b82818337600083830152505050565b600061259061258b8461253d565b612522565b9050828152602081018484840111156125ac576125ab6124bd565b5b6125b784828561256e565b509392505050565b600082601f8301126125d4576125d36124b8565b5b81356125e484826020860161257d565b91505092915050565b600080604083850312156126045761260361213c565b5b6000612612858286016122d4565b925050602083013567ffffffffffffffff81111561263357612632612141565b5b61263f858286016125bf565b9150509250929050565b612652816121cb565b811461265d57600080fd5b50565b60008135905061266f81612649565b92915050565b6000806040838503121561268c5761268b61213c565b5b600061269a858286016123b9565b92505060206126ab85828601612660565b9150509250929050565b600067ffffffffffffffff8211156126d0576126cf6124c2565b5b6126d982612247565b9050602081019050919050565b60006126f96126f4846126b5565b612522565b905082815260208101848484011115612715576127146124bd565b5b61272084828561256e565b509392505050565b600082601f83011261273d5761273c6124b8565b5b813561274d8482602086016126e6565b91505092915050565b600080600080608085870312156127705761276f61213c565b5b600061277e878288016123b9565b945050602061278f878288016123b9565b93505060406127a0878288016122d4565b925050606085013567ffffffffffffffff8111156127c1576127c0612141565b5b6127cd87828801612728565b91505092959194509250565b600080604083850312156127f0576127ef61213c565b5b600083013567ffffffffffffffff81111561280e5761280d612141565b5b61281a858286016125bf565b925050602083013567ffffffffffffffff81111561283b5761283a612141565b5b612847858286016125bf565b9150509250929050565b600080604083850312156128685761286761213c565b5b6000612876858286016123b9565b9250506020612887858286016123b9565b9150509250929050565b7f4e487b7100000000000000000000000000000000000000000000000000000000600052602260045260246000fd5b600060028204905060018216806128d857607f821691505b6020821081036128eb576128ea612891565b5b50919050565b60006060820190506129066000830186612378565b612913602083018561240e565b6129206040830184612378565b949350505050565b7f536164656365207361686962692064656769737469726562696c697200000000600082015250565b600061295e601c8361220c565b915061296982612928565b602082019050919050565b6000602082019050818103600083015261298d81612951565b9050919050565b7f596574657273697a2069736c656d20756372657469212028302e30303120455460008201527f4829000000000000000000000000000000000000000000000000000000000000602082015250565b60006129f060228361220c565b91506129fb82612994565b604082019050919050565b60006020820190508181036000830152612a1f816129e3565b9050919050565b6000604082019050612a3b6000830185612378565b612a48602083018461240e565b9392505050565b7f5965746b6973697a2069736c656d000000000000000000000000000000000000600082015250565b6000612a85600e8361220c565b9150612a9082612a4f565b602082019050919050565b60006020820190508181036000830152612ab481612a78565b9050919050565b60008190508160005260206000209050919050565b60006020601f8301049050919050565b600082821b905092915050565b600060088302612b1d7fffffffffffffffffffffffffffffffffffffffffffffffffffffffffffffffff82612ae0565b612b278683612ae0565b95508019841693508086168417925050509392505050565b6000819050919050565b6000612b64612b5f612b5a846122b3565b612b3f565b6122b3565b9050919050565b6000819050919050565b612b7e83612b49565b612b92612b8a82612b6b565b848454612aed565b825550505050565b600090565b612ba7612b9a565b612bb2818484612b75565b505050565b5b81811015612bd657612bcb600082612b9f565b600181019050612bb8565b5050565b601f821115612c1b57612bec81612abb565b612bf584612ad0565b81016020851015612c04578190505b612c18612c1085612ad0565b830182612bb7565b50505b505050565b600082821c905092915050565b6000612c3e60001984600802612c20565b1980831691505092915050565b6000612c578383612c2d565b9150826002028217905092915050565b612c7082612201565b67ffffffffffffffff811115612c8957612c886124c2565b5b612c9382546128c0565b612c9e828285612bda565b600060209050601f831160018114612cd15760008415612cbf578287015190505b612cc98582612c4b565b865550612d31565b601f198416612cdf86612abb565b60005b82811015612d0757848901518255600182019150602085019450602081019050612ce2565b86831015612d245784890151612d20601f891682612c2d565b8355505b6001600288020188555050505b505050505050565b7f4e487b7100000000000000000000000000000000000000000000000000000000600052601160045260246000fd5b6000612d73826122b3565b91507fffffffffffffffffffffffffffffffffffffffffffffffffffffffffffffffff8203612da557612da4612d39565b5b600182019050919050565b600081905092915050565b6000612dc682612201565b612dd08185612db0565b9350612de081856020860161221d565b80840191505092915050565b6000612df88285612dbb565b9150612e048284612dbb565b91508190509392505050565b600081519050919050565b600082825260208201905092915050565b6000612e3782612e10565b612e418185612e1b565b9350612e5181856020860161221d565b612e5a81612247565b840191505092915050565b6000608082019050612e7a6000830187612378565b612e876020830186612378565b612e94604083018561240e565b8181036060830152612ea68184612e2c565b905095945050505050565b600081519050612ec081612172565b92915050565b600060208284031215612edc57612edb61213c565b5b6000612eea84828501612eb1565b91505092915050565b7f4e487b7100000000000000000000000000000000000000000000000000000000600052601260045260246000fdfea2646970667358221220d0fb7686e70e040448e9823f6e8575eac83b21a79ddfc4faabaa28fdce55e05d64736f6c63430008140033",
  "linkReferences": {},
  "deployedLinkReferences": {}
}